{
  "contractName": "KingOfHill",
  "abi": [
    {
      "constant": true,
      "inputs": [
        {
          "name": "",
          "type": "uint256"
        }
      ],
      "name": "messages",
      "outputs": [
        {
          "name": "",
          "type": "string"
        }
      ],
      "payable": false,
      "stateMutability": "view",
      "type": "function"
    },
    {
      "constant": false,
      "inputs": [],
      "name": "kill",
      "outputs": [],
      "payable": false,
      "stateMutability": "nonpayable",
      "type": "function"
    },
    {
      "constant": true,
      "inputs": [],
      "name": "owner",
      "outputs": [
        {
          "name": "",
          "type": "address"
        }
      ],
      "payable": false,
      "stateMutability": "view",
      "type": "function"
    },
    {
      "constant": false,
      "inputs": [
        {
          "name": "newOwner",
          "type": "address"
        }
      ],
      "name": "transferOwnership",
      "outputs": [],
      "payable": false,
      "stateMutability": "nonpayable",
      "type": "function"
    },
    {
      "anonymous": false,
      "inputs": [
        {
          "indexed": false,
          "name": "message",
          "type": "string"
        },
        {
          "indexed": false,
          "name": "price",
          "type": "uint256"
        }
      ],
      "name": "PublishMessage",
      "type": "event"
    },
    {
      "constant": false,
      "inputs": [
        {
          "name": "message",
          "type": "string"
        }
      ],
      "name": "addMessage",
      "outputs": [],
      "payable": true,
      "stateMutability": "payable",
      "type": "function"
    },
    {
      "constant": true,
      "inputs": [],
      "name": "getPrice",
      "outputs": [
        {
          "name": "",
          "type": "uint256"
        }
      ],
      "payable": false,
      "stateMutability": "view",
      "type": "function"
    },
    {
      "constant": true,
      "inputs": [],
      "name": "getLastMessage",
      "outputs": [
        {
          "name": "",
          "type": "string"
        }
      ],
      "payable": false,
      "stateMutability": "view",
      "type": "function"
    },
    {
      "constant": true,
      "inputs": [],
      "name": "getAllMessages",
      "outputs": [
        {
          "name": "",
          "type": "string"
        }
      ],
      "payable": false,
      "stateMutability": "view",
      "type": "function"
    }
  ],
  "bytecode": "0x60606040526509184e72a0006002556509184e72a000600355336000806101000a81548173ffffffffffffffffffffffffffffffffffffffff021916908373ffffffffffffffffffffffffffffffffffffffff160217905550610d61806100676000396000f30060606040526004361061008e576000357c0100000000000000000000000000000000000000000000000000000000900463ffffffff1680630d80fefd1461009357806341c0e1b51461012f578063526bf76e1461014457806353f5e380146101d25780636a226a49146102605780638da5cb5b146102b257806398d5fdca14610307578063f2fde38b14610330575b600080fd5b341561009e57600080fd5b6100b46004808035906020019091905050610369565b6040518080602001828103825283818151815260200191508051906020019080838360005b838110156100f45780820151818401526020810190506100d9565b50505050905090810190601f1680156101215780820380516001836020036101000a031916815260200191505b509250505060405180910390f35b341561013a57600080fd5b610142610425565b005b341561014f57600080fd5b6101576104b6565b6040518080602001828103825283818151815260200191508051906020019080838360005b8381101561019757808201518184015260208101905061017c565b50505050905090810190601f1680156101c45780820380516001836020036101000a031916815260200191505b509250505060405180910390f35b34156101dd57600080fd5b6101e56105c8565b6040518080602001828103825283818151815260200191508051906020019080838360005b8381101561022557808201518184015260208101905061020a565b50505050905090810190601f1680156102525780820380516001836020036101000a031916815260200191505b509250505060405180910390f35b6102b0600480803590602001908201803590602001908080601f01602080910402602001604051908101604052809392919081815260200183838082843782019150505050505091905050610745565b005b34156102bd57600080fd5b6102c56108ea565b604051808273ffffffffffffffffffffffffffffffffffffffff1673ffffffffffffffffffffffffffffffffffffffff16815260200191505060405180910390f35b341561031257600080fd5b61031a61090f565b6040518082815260200191505060405180910390f35b341561033b57600080fd5b610367600480803573ffffffffffffffffffffffffffffffffffffffff16906020019091905050610919565b005b60018181548110151561037857fe5b90600052602060002090016000915090508054600181600116156101000203166002900480601f01602080910402602001604051908101604052809291908181526020018280546001816001161561010002031660029004801561041d5780601f106103f25761010080835404028352916020019161041d565b820191906000526020600020905b81548152906001019060200180831161040057829003601f168201915b505050505081565b6000809054906101000a900473ffffffffffffffffffffffffffffffffffffffff1673ffffffffffffffffffffffffffffffffffffffff163373ffffffffffffffffffffffffffffffffffffffff1614156104b4576000809054906101000a900473ffffffffffffffffffffffffffffffffffffffff1673ffffffffffffffffffffffffffffffffffffffff16ff5b565b6104be610bc2565b6000600180549050111561058c576001808080549050038154811015156104e157fe5b90600052602060002090018054600181600116156101000203166002900480601f0160208091040260200160405190810160405280929190818152602001828054600181600116156101000203166002900480156105805780601f1061055557610100808354040283529160200191610580565b820191906000526020600020905b81548152906001019060200180831161056357829003601f168201915b505050505090506105c5565b6040805190810160405280600e81526020017f4e6f206d6573736167652079657400000000000000000000000000000000000081525090505b90565b6105d0610bc2565b6105d8610bc2565b600060206040519081016040528060008152509150600090505b60018054905081101561073d576106576106406040805190810160405280600181526020017f2d000000000000000000000000000000000000000000000000000000000000008152506109e9565b610649846109e9565b610a1790919063ffffffff16565b915061072e61071760018381548110151561066e57fe5b90600052602060002090018054600181600116156101000203166002900480601f01602080910402602001604051908101604052809291908181526020018280546001816001161561010002031660029004801561070d5780601f106106e25761010080835404028352916020019161070d565b820191906000526020600020905b8154815290600101906020018083116106f057829003601f168201915b50505050506109e9565b610720846109e9565b610a1790919063ffffffff16565b915080806001019150506105f2565b819250505090565b600254341015151561075357fe5b6107ab6107946040805190810160405280600181526020017f2d000000000000000000000000000000000000000000000000000000000000008152506109e9565b61079d836109e9565b610a9590919063ffffffff16565b1515156107b457fe5b3373ffffffffffffffffffffffffffffffffffffffff166108fc60025434039081150290604051600060405180830381858888f1935050505015156107f857600080fd5b60035460025401600281905550600180548060010182816108199190610bd6565b91600052602060002090016000839091909150908051906020019061083f929190610c02565b50507f70c91f0e0dbfffd521527462e419a2b6c5bd17bc6753b201998ed665db2a911b816002546040518080602001838152602001828103825284818151815260200191508051906020019080838360005b838110156108ac578082015181840152602081019050610891565b50505050905090810190601f1680156108d95780820380516001836020036101000a031916815260200191505b50935050505060405180910390a150565b6000809054906101000a900473ffffffffffffffffffffffffffffffffffffffff1681565b6000600254905090565b6000809054906101000a900473ffffffffffffffffffffffffffffffffffffffff1673ffffffffffffffffffffffffffffffffffffffff163373ffffffffffffffffffffffffffffffffffffffff1614156109e657600073ffffffffffffffffffffffffffffffffffffffff168173ffffffffffffffffffffffffffffffffffffffff161415156109e557806000806101000a81548173ffffffffffffffffffffffffffffffffffffffff021916908373ffffffffffffffffffffffffffffffffffffffff1602179055505b5b50565b6109f1610c82565b600060208301905060408051908101604052808451815260200182815250915050919050565b610a1f610bc2565b610a27610bc2565b60008360000151856000015101604051805910610a415750595b9080825280601f01601f19166020018201604052509150602082019050610a718186602001518760000151610ac2565b610a8a8560000151820185602001518660000151610ac2565b819250505092915050565b60008260200151610ab88460000151856020015185600001518660200151610b0d565b1415905092915050565b60005b602082101515610aea5782518452602084019350602083019250602082039150610ac5565b6001826020036101000a0390508019835116818551168181178652505050505050565b6000806000808786111515610bb357602086111515610b725760018660200360080260020a031980865116878a03890194505b808286511614610b6257600185039450886001860111610b4057889450610b68565b87850194505b5050829350610bb7565b8585209150858803870192505b8683101515610bb2578583209050806000191682600019161415610ba7578583019350610bb7565b600183039250610b7f565b5b8693505b505050949350505050565b602060405190810160405280600081525090565b815481835581811511610bfd57818360005260206000209182019101610bfc9190610c9c565b5b505050565b828054600181600116156101000203166002900490600052602060002090601f016020900481019282601f10610c4357805160ff1916838001178555610c71565b82800160010185558215610c71579182015b82811115610c70578251825591602001919060010190610c55565b5b509050610c7e9190610cc8565b5090565b604080519081016040528060008152602001600081525090565b610cc591905b80821115610cc15760008181610cb89190610ced565b50600101610ca2565b5090565b90565b610cea91905b80821115610ce6576000816000905550600101610cce565b5090565b90565b50805460018160011615610100020316600290046000825580601f10610d135750610d32565b601f016020900490600052602060002090810190610d319190610cc8565b5b505600a165627a7a72305820f00e64cbe060ad90463cdd38f8c338c9409e7e169e515fbfa9de21672eaff01b0029",
  "source": "pragma solidity ^0.4.2;\n\nimport './zeppelin/lifecycle/Killable.sol';\nimport './Strings.sol';\n\n\ncontract KingOfHill is Killable{\n    using strings for *;\n    string[] public messages;\n    uint private price = 10 szabo;\n    uint increasingAmount = 10 szabo;\n\n    event PublishMessage(\n       string message,\n       uint price\n    );\n\n    function addMessage(string message)\n    payable\n    public\n    {\n        assert(msg.value>=price);\n        assert(!message.toSlice().contains(\"-\".toSlice()));\n        msg.sender.transfer(msg.value - price);\n        price = price+increasingAmount;\n        messages.push(message);\n        PublishMessage(message,price);\n    }\n\n    function getPrice()\n    constant\n    public\n    returns (uint)\n    {\n        return price;\n    }\n\n\n    function getLastMessage()\n    constant\n    public\n    returns (string)\n    {\n        if(messages.length>0){\n            return messages[messages.length-1];\n        }\n        return \"No message yet\";\n    }\n\n    function getAllMessages()\n    constant\n    public\n    returns(string)\n    {\n        string memory returnval = \"\";\n        for(uint i = 0;i<messages.length;i++){\n            returnval = returnval.toSlice().concat(\"-\".toSlice());\n            returnval = returnval.toSlice().concat(messages[i].toSlice());\n        }\n        return returnval;\n    }\n}",
  "sourcePath": "/Users/victor/Documents/projects/js/king_of_hill_eth/contracts/KingOfHill.sol",
  "compiler": {
    "name": "solc",
    "version": "0.4.19+commit.c4cbbb05.Emscripten.clang"
  },
  "schemaVersion": "2.0.0",
  "updatedAt": "2018-03-29T05:28:08.867Z"
}